{
	"contracts/Own code/loops.sol": {
		"functions": {
			"abi": [
				{
					"inputs": [],
					"name": "DoWhileLOoops",
					"outputs": [],
					"stateMutability": "nonpayable",
					"type": "function"
				},
				{
					"inputs": [],
					"name": "ForLOoops",
					"outputs": [],
					"stateMutability": "nonpayable",
					"type": "function"
				},
				{
					"inputs": [],
					"name": "WhileLOoops",
					"outputs": [],
					"stateMutability": "nonpayable",
					"type": "function"
				},
				{
					"inputs": [],
					"name": "a",
					"outputs": [
						{
							"internalType": "uint256",
							"name": "",
							"type": "uint256"
						}
					],
					"stateMutability": "view",
					"type": "function"
				},
				{
					"inputs": [],
					"name": "b",
					"outputs": [
						{
							"internalType": "uint256",
							"name": "",
							"type": "uint256"
						}
					],
					"stateMutability": "view",
					"type": "function"
				},
				{
					"inputs": [],
					"name": "c",
					"outputs": [
						{
							"internalType": "uint256",
							"name": "",
							"type": "uint256"
						}
					],
					"stateMutability": "view",
					"type": "function"
				},
				{
					"inputs": [],
					"name": "d",
					"outputs": [
						{
							"internalType": "uint256",
							"name": "",
							"type": "uint256"
						}
					],
					"stateMutability": "view",
					"type": "function"
				},
				{
					"inputs": [],
					"name": "e",
					"outputs": [
						{
							"internalType": "uint256",
							"name": "",
							"type": "uint256"
						}
					],
					"stateMutability": "view",
					"type": "function"
				},
				{
					"inputs": [],
					"name": "f",
					"outputs": [
						{
							"internalType": "uint256",
							"name": "",
							"type": "uint256"
						}
					],
					"stateMutability": "view",
					"type": "function"
				}
			],
			"devdoc": {
				"kind": "dev",
				"methods": {},
				"version": 1
			},
			"evm": {
				"assembly": "    /* \"contracts/Own code/loops.sol\":63:509  contract functions{... */\n  mstore(0x40, 0x80)\n    /* \"contracts/Own code/loops.sol\":103:104  3 */\n  0x03\n    /* \"contracts/Own code/loops.sol\":89:104  uint public a=3 */\n  0x00\n  sstore\n    /* \"contracts/Own code/loops.sol\":125:126  6 */\n  0x06\n    /* \"contracts/Own code/loops.sol\":111:126  uint public b=6 */\n  0x01\n  sstore\n    /* \"contracts/Own code/loops.sol\":243:244  3 */\n  0x03\n    /* \"contracts/Own code/loops.sol\":229:244  uint public c=3 */\n  0x02\n  sstore\n    /* \"contracts/Own code/loops.sol\":265:266  6 */\n  0x06\n    /* \"contracts/Own code/loops.sol\":251:266  uint public d=6 */\n  0x03\n  sstore\n    /* \"contracts/Own code/loops.sol\":406:407  0 */\n  0x00\n    /* \"contracts/Own code/loops.sol\":392:407  uint public f=0 */\n  0x05\n  sstore\n    /* \"contracts/Own code/loops.sol\":63:509  contract functions{... */\n  callvalue\n  dup1\n  iszero\n  tag_1\n  jumpi\n  0x00\n  dup1\n  revert\ntag_1:\n  pop\n  dataSize(sub_0)\n  dup1\n  dataOffset(sub_0)\n  0x00\n  codecopy\n  0x00\n  return\nstop\n\nsub_0: assembly {\n        /* \"contracts/Own code/loops.sol\":63:509  contract functions{... */\n      mstore(0x40, 0x80)\n      callvalue\n      dup1\n      iszero\n      tag_1\n      jumpi\n      0x00\n      dup1\n      revert\n    tag_1:\n      pop\n      jumpi(tag_2, lt(calldatasize, 0x04))\n      shr(0xe0, calldataload(0x00))\n      dup1\n      0x5c0b2372\n      gt\n      tag_12\n      jumpi\n      dup1\n      0x5c0b2372\n      eq\n      tag_7\n      jumpi\n      dup1\n      0x8a054ac2\n      eq\n      tag_8\n      jumpi\n      dup1\n      0xc3da42b8\n      eq\n      tag_9\n      jumpi\n      dup1\n      0xdf788a24\n      eq\n      tag_10\n      jumpi\n      dup1\n      0xffae15ba\n      eq\n      tag_11\n      jumpi\n      jump(tag_2)\n    tag_12:\n      dup1\n      0x0bab38a0\n      eq\n      tag_3\n      jumpi\n      dup1\n      0x0dbe671f\n      eq\n      tag_4\n      jumpi\n      dup1\n      0x26121ff0\n      eq\n      tag_5\n      jumpi\n      dup1\n      0x4df7e3d0\n      eq\n      tag_6\n      jumpi\n    tag_2:\n      0x00\n      dup1\n      revert\n        /* \"contracts/Own code/loops.sol\":273:365  function DoWhileLOoops() public{... */\n    tag_3:\n      tag_13\n      tag_14\n      jump\t// in\n    tag_13:\n      stop\n        /* \"contracts/Own code/loops.sol\":89:104  uint public a=3 */\n    tag_4:\n      tag_15\n      tag_16\n      jump\t// in\n    tag_15:\n      mload(0x40)\n      tag_17\n      swap2\n      swap1\n      tag_18\n      jump\t// in\n    tag_17:\n      mload(0x40)\n      dup1\n      swap2\n      sub\n      swap1\n      return\n        /* \"contracts/Own code/loops.sol\":392:407  uint public f=0 */\n    tag_5:\n      tag_19\n      tag_20\n      jump\t// in\n    tag_19:\n      mload(0x40)\n      tag_21\n      swap2\n      swap1\n      tag_18\n      jump\t// in\n    tag_21:\n      mload(0x40)\n      dup1\n      swap2\n      sub\n      swap1\n      return\n        /* \"contracts/Own code/loops.sol\":111:126  uint public b=6 */\n    tag_6:\n      tag_22\n      tag_23\n      jump\t// in\n    tag_22:\n      mload(0x40)\n      tag_24\n      swap2\n      swap1\n      tag_18\n      jump\t// in\n    tag_24:\n      mload(0x40)\n      dup1\n      swap2\n      sub\n      swap1\n      return\n        /* \"contracts/Own code/loops.sol\":414:505  function ForLOoops() public{... */\n    tag_7:\n      tag_25\n      tag_26\n      jump\t// in\n    tag_25:\n      stop\n        /* \"contracts/Own code/loops.sol\":251:266  uint public d=6 */\n    tag_8:\n      tag_27\n      tag_28\n      jump\t// in\n    tag_27:\n      mload(0x40)\n      tag_29\n      swap2\n      swap1\n      tag_18\n      jump\t// in\n    tag_29:\n      mload(0x40)\n      dup1\n      swap2\n      sub\n      swap1\n      return\n        /* \"contracts/Own code/loops.sol\":229:244  uint public c=3 */\n    tag_9:\n      tag_30\n      tag_31\n      jump\t// in\n    tag_30:\n      mload(0x40)\n      tag_32\n      swap2\n      swap1\n      tag_18\n      jump\t// in\n    tag_32:\n      mload(0x40)\n      dup1\n      swap2\n      sub\n      swap1\n      return\n        /* \"contracts/Own code/loops.sol\":133:222  function WhileLOoops() public{ ... */\n    tag_10:\n      tag_33\n      tag_34\n      jump\t// in\n    tag_33:\n      stop\n        /* \"contracts/Own code/loops.sol\":372:385  uint public e */\n    tag_11:\n      tag_35\n      tag_36\n      jump\t// in\n    tag_35:\n      mload(0x40)\n      tag_37\n      swap2\n      swap1\n      tag_18\n      jump\t// in\n    tag_37:\n      mload(0x40)\n      dup1\n      swap2\n      sub\n      swap1\n      return\n        /* \"contracts/Own code/loops.sol\":273:365  function DoWhileLOoops() public{... */\n    tag_14:\n        /* \"contracts/Own code/loops.sol\":314:358  do{... */\n    tag_39:\n        /* \"contracts/Own code/loops.sol\":334:335  1 */\n      0x01\n        /* \"contracts/Own code/loops.sol\":332:333  c */\n      sload(0x02)\n        /* \"contracts/Own code/loops.sol\":332:335  c+1 */\n      tag_42\n      swap2\n      swap1\n      tag_43\n      jump\t// in\n    tag_42:\n        /* \"contracts/Own code/loops.sol\":330:331  c */\n      0x02\n        /* \"contracts/Own code/loops.sol\":330:335  c=c+1 */\n      dup2\n      swap1\n      sstore\n      pop\n        /* \"contracts/Own code/loops.sol\":355:356  d */\n      sload(0x03)\n        /* \"contracts/Own code/loops.sol\":353:354  c */\n      sload(0x02)\n        /* \"contracts/Own code/loops.sol\":353:356  c<d */\n      lt\n        /* \"contracts/Own code/loops.sol\":314:358  do{... */\n      tag_39\n      jumpi\n        /* \"contracts/Own code/loops.sol\":273:365  function DoWhileLOoops() public{... */\n      jump\t// out\n        /* \"contracts/Own code/loops.sol\":89:104  uint public a=3 */\n    tag_16:\n      sload(0x00)\n      dup2\n      jump\t// out\n        /* \"contracts/Own code/loops.sol\":392:407  uint public f=0 */\n    tag_20:\n      sload(0x05)\n      dup2\n      jump\t// out\n        /* \"contracts/Own code/loops.sol\":111:126  uint public b=6 */\n    tag_23:\n      sload(0x01)\n      dup2\n      jump\t// out\n        /* \"contracts/Own code/loops.sol\":414:505  function ForLOoops() public{... */\n    tag_26:\n        /* \"contracts/Own code/loops.sol\":457:458  0 */\n      0x00\n        /* \"contracts/Own code/loops.sol\":455:456  e */\n      0x04\n        /* \"contracts/Own code/loops.sol\":455:458  e=0 */\n      dup2\n      swap1\n      sstore\n      pop\n        /* \"contracts/Own code/loops.sol\":451:498  for(e=0;e<5;e++){... */\n    tag_45:\n        /* \"contracts/Own code/loops.sol\":461:462  5 */\n      0x05\n        /* \"contracts/Own code/loops.sol\":459:460  e */\n      sload(0x04)\n        /* \"contracts/Own code/loops.sol\":459:462  e<5 */\n      lt\n        /* \"contracts/Own code/loops.sol\":451:498  for(e=0;e<5;e++){... */\n      iszero\n      tag_46\n      jumpi\n        /* \"contracts/Own code/loops.sol\":486:487  1 */\n      0x01\n        /* \"contracts/Own code/loops.sol\":484:485  f */\n      sload(0x05)\n        /* \"contracts/Own code/loops.sol\":484:487  f+1 */\n      tag_48\n      swap2\n      swap1\n      tag_43\n      jump\t// in\n    tag_48:\n        /* \"contracts/Own code/loops.sol\":482:483  f */\n      0x05\n        /* \"contracts/Own code/loops.sol\":482:487  f=f+1 */\n      dup2\n      swap1\n      sstore\n      pop\n        /* \"contracts/Own code/loops.sol\":463:464  e */\n      0x04\n      0x00\n        /* \"contracts/Own code/loops.sol\":463:466  e++ */\n      dup2\n      sload\n      dup1\n      swap3\n      swap2\n      swap1\n      tag_49\n      swap1\n      tag_50\n      jump\t// in\n    tag_49:\n      swap2\n      swap1\n      pop\n      sstore\n      pop\n        /* \"contracts/Own code/loops.sol\":451:498  for(e=0;e<5;e++){... */\n      jump(tag_45)\n    tag_46:\n        /* \"contracts/Own code/loops.sol\":414:505  function ForLOoops() public{... */\n      jump\t// out\n        /* \"contracts/Own code/loops.sol\":251:266  uint public d=6 */\n    tag_28:\n      sload(0x03)\n      dup2\n      jump\t// out\n        /* \"contracts/Own code/loops.sol\":229:244  uint public c=3 */\n    tag_31:\n      sload(0x02)\n      dup2\n      jump\t// out\n        /* \"contracts/Own code/loops.sol\":133:222  function WhileLOoops() public{ ... */\n    tag_34:\n        /* \"contracts/Own code/loops.sol\":173:215  while (a<b){... */\n    tag_52:\n        /* \"contracts/Own code/loops.sol\":182:183  b */\n      sload(0x01)\n        /* \"contracts/Own code/loops.sol\":180:181  a */\n      sload(0x00)\n        /* \"contracts/Own code/loops.sol\":180:183  a<b */\n      lt\n        /* \"contracts/Own code/loops.sol\":173:215  while (a<b){... */\n      iszero\n      tag_53\n      jumpi\n        /* \"contracts/Own code/loops.sol\":203:204  1 */\n      0x01\n        /* \"contracts/Own code/loops.sol\":201:202  a */\n      sload(0x00)\n        /* \"contracts/Own code/loops.sol\":201:204  a+1 */\n      tag_54\n      swap2\n      swap1\n      tag_43\n      jump\t// in\n    tag_54:\n        /* \"contracts/Own code/loops.sol\":199:200  a */\n      0x00\n        /* \"contracts/Own code/loops.sol\":199:204  a=a+1 */\n      dup2\n      swap1\n      sstore\n      pop\n        /* \"contracts/Own code/loops.sol\":173:215  while (a<b){... */\n      jump(tag_52)\n    tag_53:\n        /* \"contracts/Own code/loops.sol\":133:222  function WhileLOoops() public{ ... */\n      jump\t// out\n        /* \"contracts/Own code/loops.sol\":372:385  uint public e */\n    tag_36:\n      sload(0x04)\n      dup2\n      jump\t// out\n        /* \"#utility.yul\":7:84   */\n    tag_55:\n        /* \"#utility.yul\":44:51   */\n      0x00\n        /* \"#utility.yul\":73:78   */\n      dup2\n        /* \"#utility.yul\":62:78   */\n      swap1\n      pop\n        /* \"#utility.yul\":7:84   */\n      swap2\n      swap1\n      pop\n      jump\t// out\n        /* \"#utility.yul\":90:208   */\n    tag_56:\n        /* \"#utility.yul\":177:201   */\n      tag_61\n        /* \"#utility.yul\":195:200   */\n      dup2\n        /* \"#utility.yul\":177:201   */\n      tag_55\n      jump\t// in\n    tag_61:\n        /* \"#utility.yul\":172:175   */\n      dup3\n        /* \"#utility.yul\":165:202   */\n      mstore\n        /* \"#utility.yul\":90:208   */\n      pop\n      pop\n      jump\t// out\n        /* \"#utility.yul\":214:436   */\n    tag_18:\n        /* \"#utility.yul\":307:311   */\n      0x00\n        /* \"#utility.yul\":345:347   */\n      0x20\n        /* \"#utility.yul\":334:343   */\n      dup3\n        /* \"#utility.yul\":330:348   */\n      add\n        /* \"#utility.yul\":322:348   */\n      swap1\n      pop\n        /* \"#utility.yul\":358:429   */\n      tag_63\n        /* \"#utility.yul\":426:427   */\n      0x00\n        /* \"#utility.yul\":415:424   */\n      dup4\n        /* \"#utility.yul\":411:428   */\n      add\n        /* \"#utility.yul\":402:408   */\n      dup5\n        /* \"#utility.yul\":358:429   */\n      tag_56\n      jump\t// in\n    tag_63:\n        /* \"#utility.yul\":214:436   */\n      swap3\n      swap2\n      pop\n      pop\n      jump\t// out\n        /* \"#utility.yul\":442:622   */\n    tag_57:\n        /* \"#utility.yul\":490:567   */\n      0x4e487b7100000000000000000000000000000000000000000000000000000000\n        /* \"#utility.yul\":487:488   */\n      0x00\n        /* \"#utility.yul\":480:568   */\n      mstore\n        /* \"#utility.yul\":587:591   */\n      0x11\n        /* \"#utility.yul\":584:585   */\n      0x04\n        /* \"#utility.yul\":577:592   */\n      mstore\n        /* \"#utility.yul\":611:615   */\n      0x24\n        /* \"#utility.yul\":608:609   */\n      0x00\n        /* \"#utility.yul\":601:616   */\n      revert\n        /* \"#utility.yul\":628:819   */\n    tag_43:\n        /* \"#utility.yul\":668:671   */\n      0x00\n        /* \"#utility.yul\":687:707   */\n      tag_66\n        /* \"#utility.yul\":705:706   */\n      dup3\n        /* \"#utility.yul\":687:707   */\n      tag_55\n      jump\t// in\n    tag_66:\n        /* \"#utility.yul\":682:707   */\n      swap2\n      pop\n        /* \"#utility.yul\":721:741   */\n      tag_67\n        /* \"#utility.yul\":739:740   */\n      dup4\n        /* \"#utility.yul\":721:741   */\n      tag_55\n      jump\t// in\n    tag_67:\n        /* \"#utility.yul\":716:741   */\n      swap3\n      pop\n        /* \"#utility.yul\":764:765   */\n      dup3\n        /* \"#utility.yul\":761:762   */\n      dup3\n        /* \"#utility.yul\":757:766   */\n      add\n        /* \"#utility.yul\":750:766   */\n      swap1\n      pop\n        /* \"#utility.yul\":785:788   */\n      dup1\n        /* \"#utility.yul\":782:783   */\n      dup3\n        /* \"#utility.yul\":779:789   */\n      gt\n        /* \"#utility.yul\":776:812   */\n      iszero\n      tag_68\n      jumpi\n        /* \"#utility.yul\":792:810   */\n      tag_69\n      tag_57\n      jump\t// in\n    tag_69:\n        /* \"#utility.yul\":776:812   */\n    tag_68:\n        /* \"#utility.yul\":628:819   */\n      swap3\n      swap2\n      pop\n      pop\n      jump\t// out\n        /* \"#utility.yul\":825:1058   */\n    tag_50:\n        /* \"#utility.yul\":864:867   */\n      0x00\n        /* \"#utility.yul\":887:911   */\n      tag_71\n        /* \"#utility.yul\":905:910   */\n      dup3\n        /* \"#utility.yul\":887:911   */\n      tag_55\n      jump\t// in\n    tag_71:\n        /* \"#utility.yul\":878:911   */\n      swap2\n      pop\n        /* \"#utility.yul\":933:999   */\n      0xffffffffffffffffffffffffffffffffffffffffffffffffffffffffffffffff\n        /* \"#utility.yul\":926:931   */\n      dup3\n        /* \"#utility.yul\":923:1000   */\n      sub\n        /* \"#utility.yul\":920:1023   */\n      tag_72\n      jumpi\n        /* \"#utility.yul\":1003:1021   */\n      tag_73\n      tag_57\n      jump\t// in\n    tag_73:\n        /* \"#utility.yul\":920:1023   */\n    tag_72:\n        /* \"#utility.yul\":1050:1051   */\n      0x01\n        /* \"#utility.yul\":1043:1048   */\n      dup3\n        /* \"#utility.yul\":1039:1052   */\n      add\n        /* \"#utility.yul\":1032:1052   */\n      swap1\n      pop\n        /* \"#utility.yul\":825:1058   */\n      swap2\n      swap1\n      pop\n      jump\t// out\n\n    auxdata: 0xa2646970667358221220d3339d3d7df069ad75526d2ce1bb2f06bf9b3f2be0e133faefc6afe62938689764736f6c63430008120033\n}\n",
				"bytecode": {
					"linkReferences": {},
					"object": "60806040526003600055600660015560036002556006600355600060055534801561002957600080fd5b50610337806100396000396000f3fe608060405234801561001057600080fd5b50600436106100935760003560e01c80635c0b2372116100665780635c0b2372146100fc5780638a054ac214610106578063c3da42b814610124578063df788a2414610142578063ffae15ba1461014c57610093565b80630bab38a0146100985780630dbe671f146100a257806326121ff0146100c05780634df7e3d0146100de575b600080fd5b6100a061016a565b005b6100aa61018d565b6040516100b7919061023b565b60405180910390f35b6100c8610193565b6040516100d5919061023b565b60405180910390f35b6100e6610199565b6040516100f3919061023b565b60405180910390f35b61010461019f565b005b61010e6101e7565b60405161011b919061023b565b60405180910390f35b61012c6101ed565b604051610139919061023b565b60405180910390f35b61014a6101f3565b005b61015461021c565b604051610161919061023b565b60405180910390f35b5b600160025461017a9190610285565b6002819055506003546002541061016b57565b60005481565b60055481565b60015481565b60006004819055505b600560045410156101e55760016005546101c29190610285565b600581905550600460008154809291906101db906102b9565b91905055506101a8565b565b60035481565b60025481565b5b600154600054101561021a57600160005461020f9190610285565b6000819055506101f4565b565b60045481565b6000819050919050565b61023581610222565b82525050565b6000602082019050610250600083018461022c565b92915050565b7f4e487b7100000000000000000000000000000000000000000000000000000000600052601160045260246000fd5b600061029082610222565b915061029b83610222565b92508282019050808211156102b3576102b2610256565b5b92915050565b60006102c482610222565b91507fffffffffffffffffffffffffffffffffffffffffffffffffffffffffffffffff82036102f6576102f5610256565b5b60018201905091905056fea2646970667358221220d3339d3d7df069ad75526d2ce1bb2f06bf9b3f2be0e133faefc6afe62938689764736f6c63430008120033",
					"opcodes": "PUSH1 0x80 PUSH1 0x40 MSTORE PUSH1 0x3 PUSH1 0x0 SSTORE PUSH1 0x6 PUSH1 0x1 SSTORE PUSH1 0x3 PUSH1 0x2 SSTORE PUSH1 0x6 PUSH1 0x3 SSTORE PUSH1 0x0 PUSH1 0x5 SSTORE CALLVALUE DUP1 ISZERO PUSH2 0x29 JUMPI PUSH1 0x0 DUP1 REVERT JUMPDEST POP PUSH2 0x337 DUP1 PUSH2 0x39 PUSH1 0x0 CODECOPY PUSH1 0x0 RETURN INVALID PUSH1 0x80 PUSH1 0x40 MSTORE CALLVALUE DUP1 ISZERO PUSH2 0x10 JUMPI PUSH1 0x0 DUP1 REVERT JUMPDEST POP PUSH1 0x4 CALLDATASIZE LT PUSH2 0x93 JUMPI PUSH1 0x0 CALLDATALOAD PUSH1 0xE0 SHR DUP1 PUSH4 0x5C0B2372 GT PUSH2 0x66 JUMPI DUP1 PUSH4 0x5C0B2372 EQ PUSH2 0xFC JUMPI DUP1 PUSH4 0x8A054AC2 EQ PUSH2 0x106 JUMPI DUP1 PUSH4 0xC3DA42B8 EQ PUSH2 0x124 JUMPI DUP1 PUSH4 0xDF788A24 EQ PUSH2 0x142 JUMPI DUP1 PUSH4 0xFFAE15BA EQ PUSH2 0x14C JUMPI PUSH2 0x93 JUMP JUMPDEST DUP1 PUSH4 0xBAB38A0 EQ PUSH2 0x98 JUMPI DUP1 PUSH4 0xDBE671F EQ PUSH2 0xA2 JUMPI DUP1 PUSH4 0x26121FF0 EQ PUSH2 0xC0 JUMPI DUP1 PUSH4 0x4DF7E3D0 EQ PUSH2 0xDE JUMPI JUMPDEST PUSH1 0x0 DUP1 REVERT JUMPDEST PUSH2 0xA0 PUSH2 0x16A JUMP JUMPDEST STOP JUMPDEST PUSH2 0xAA PUSH2 0x18D JUMP JUMPDEST PUSH1 0x40 MLOAD PUSH2 0xB7 SWAP2 SWAP1 PUSH2 0x23B JUMP JUMPDEST PUSH1 0x40 MLOAD DUP1 SWAP2 SUB SWAP1 RETURN JUMPDEST PUSH2 0xC8 PUSH2 0x193 JUMP JUMPDEST PUSH1 0x40 MLOAD PUSH2 0xD5 SWAP2 SWAP1 PUSH2 0x23B JUMP JUMPDEST PUSH1 0x40 MLOAD DUP1 SWAP2 SUB SWAP1 RETURN JUMPDEST PUSH2 0xE6 PUSH2 0x199 JUMP JUMPDEST PUSH1 0x40 MLOAD PUSH2 0xF3 SWAP2 SWAP1 PUSH2 0x23B JUMP JUMPDEST PUSH1 0x40 MLOAD DUP1 SWAP2 SUB SWAP1 RETURN JUMPDEST PUSH2 0x104 PUSH2 0x19F JUMP JUMPDEST STOP JUMPDEST PUSH2 0x10E PUSH2 0x1E7 JUMP JUMPDEST PUSH1 0x40 MLOAD PUSH2 0x11B SWAP2 SWAP1 PUSH2 0x23B JUMP JUMPDEST PUSH1 0x40 MLOAD DUP1 SWAP2 SUB SWAP1 RETURN JUMPDEST PUSH2 0x12C PUSH2 0x1ED JUMP JUMPDEST PUSH1 0x40 MLOAD PUSH2 0x139 SWAP2 SWAP1 PUSH2 0x23B JUMP JUMPDEST PUSH1 0x40 MLOAD DUP1 SWAP2 SUB SWAP1 RETURN JUMPDEST PUSH2 0x14A PUSH2 0x1F3 JUMP JUMPDEST STOP JUMPDEST PUSH2 0x154 PUSH2 0x21C JUMP JUMPDEST PUSH1 0x40 MLOAD PUSH2 0x161 SWAP2 SWAP1 PUSH2 0x23B JUMP JUMPDEST PUSH1 0x40 MLOAD DUP1 SWAP2 SUB SWAP1 RETURN JUMPDEST JUMPDEST PUSH1 0x1 PUSH1 0x2 SLOAD PUSH2 0x17A SWAP2 SWAP1 PUSH2 0x285 JUMP JUMPDEST PUSH1 0x2 DUP2 SWAP1 SSTORE POP PUSH1 0x3 SLOAD PUSH1 0x2 SLOAD LT PUSH2 0x16B JUMPI JUMP JUMPDEST PUSH1 0x0 SLOAD DUP2 JUMP JUMPDEST PUSH1 0x5 SLOAD DUP2 JUMP JUMPDEST PUSH1 0x1 SLOAD DUP2 JUMP JUMPDEST PUSH1 0x0 PUSH1 0x4 DUP2 SWAP1 SSTORE POP JUMPDEST PUSH1 0x5 PUSH1 0x4 SLOAD LT ISZERO PUSH2 0x1E5 JUMPI PUSH1 0x1 PUSH1 0x5 SLOAD PUSH2 0x1C2 SWAP2 SWAP1 PUSH2 0x285 JUMP JUMPDEST PUSH1 0x5 DUP2 SWAP1 SSTORE POP PUSH1 0x4 PUSH1 0x0 DUP2 SLOAD DUP1 SWAP3 SWAP2 SWAP1 PUSH2 0x1DB SWAP1 PUSH2 0x2B9 JUMP JUMPDEST SWAP2 SWAP1 POP SSTORE POP PUSH2 0x1A8 JUMP JUMPDEST JUMP JUMPDEST PUSH1 0x3 SLOAD DUP2 JUMP JUMPDEST PUSH1 0x2 SLOAD DUP2 JUMP JUMPDEST JUMPDEST PUSH1 0x1 SLOAD PUSH1 0x0 SLOAD LT ISZERO PUSH2 0x21A JUMPI PUSH1 0x1 PUSH1 0x0 SLOAD PUSH2 0x20F SWAP2 SWAP1 PUSH2 0x285 JUMP JUMPDEST PUSH1 0x0 DUP2 SWAP1 SSTORE POP PUSH2 0x1F4 JUMP JUMPDEST JUMP JUMPDEST PUSH1 0x4 SLOAD DUP2 JUMP JUMPDEST PUSH1 0x0 DUP2 SWAP1 POP SWAP2 SWAP1 POP JUMP JUMPDEST PUSH2 0x235 DUP2 PUSH2 0x222 JUMP JUMPDEST DUP3 MSTORE POP POP JUMP JUMPDEST PUSH1 0x0 PUSH1 0x20 DUP3 ADD SWAP1 POP PUSH2 0x250 PUSH1 0x0 DUP4 ADD DUP5 PUSH2 0x22C JUMP JUMPDEST SWAP3 SWAP2 POP POP JUMP JUMPDEST PUSH32 0x4E487B7100000000000000000000000000000000000000000000000000000000 PUSH1 0x0 MSTORE PUSH1 0x11 PUSH1 0x4 MSTORE PUSH1 0x24 PUSH1 0x0 REVERT JUMPDEST PUSH1 0x0 PUSH2 0x290 DUP3 PUSH2 0x222 JUMP JUMPDEST SWAP2 POP PUSH2 0x29B DUP4 PUSH2 0x222 JUMP JUMPDEST SWAP3 POP DUP3 DUP3 ADD SWAP1 POP DUP1 DUP3 GT ISZERO PUSH2 0x2B3 JUMPI PUSH2 0x2B2 PUSH2 0x256 JUMP JUMPDEST JUMPDEST SWAP3 SWAP2 POP POP JUMP JUMPDEST PUSH1 0x0 PUSH2 0x2C4 DUP3 PUSH2 0x222 JUMP JUMPDEST SWAP2 POP PUSH32 0xFFFFFFFFFFFFFFFFFFFFFFFFFFFFFFFFFFFFFFFFFFFFFFFFFFFFFFFFFFFFFFFF DUP3 SUB PUSH2 0x2F6 JUMPI PUSH2 0x2F5 PUSH2 0x256 JUMP JUMPDEST JUMPDEST PUSH1 0x1 DUP3 ADD SWAP1 POP SWAP2 SWAP1 POP JUMP INVALID LOG2 PUSH5 0x6970667358 0x22 SLT KECCAK256 0xD3 CALLER SWAP14 RETURNDATASIZE PUSH30 0xF069AD75526D2CE1BB2F06BF9B3F2BE0E133FAEFC6AFE62938689764736F PUSH13 0x63430008120033000000000000 "
				},
				"gasEstimates": {
					"creation": {
						"codeDepositCost": "164600",
						"executionCost": "93638",
						"totalCost": "258238"
					},
					"external": {
						"DoWhileLOoops()": "infinite",
						"ForLOoops()": "infinite",
						"WhileLOoops()": "infinite",
						"a()": "2452",
						"b()": "2496",
						"c()": "2473",
						"d()": "2451",
						"e()": "2517",
						"f()": "2474"
					}
				},
				"methodIdentifiers": {
					"DoWhileLOoops()": "0bab38a0",
					"ForLOoops()": "5c0b2372",
					"WhileLOoops()": "df788a24",
					"a()": "0dbe671f",
					"b()": "4df7e3d0",
					"c()": "c3da42b8",
					"d()": "8a054ac2",
					"e()": "ffae15ba",
					"f()": "26121ff0"
				}
			},
			"storageLayout": {
				"storage": [
					{
						"astId": 4,
						"contract": "contracts/Own code/loops.sol:functions",
						"label": "a",
						"offset": 0,
						"slot": "0",
						"type": "t_uint256"
					},
					{
						"astId": 7,
						"contract": "contracts/Own code/loops.sol:functions",
						"label": "b",
						"offset": 0,
						"slot": "1",
						"type": "t_uint256"
					},
					{
						"astId": 25,
						"contract": "contracts/Own code/loops.sol:functions",
						"label": "c",
						"offset": 0,
						"slot": "2",
						"type": "t_uint256"
					},
					{
						"astId": 28,
						"contract": "contracts/Own code/loops.sol:functions",
						"label": "d",
						"offset": 0,
						"slot": "3",
						"type": "t_uint256"
					},
					{
						"astId": 45,
						"contract": "contracts/Own code/loops.sol:functions",
						"label": "e",
						"offset": 0,
						"slot": "4",
						"type": "t_uint256"
					},
					{
						"astId": 48,
						"contract": "contracts/Own code/loops.sol:functions",
						"label": "f",
						"offset": 0,
						"slot": "5",
						"type": "t_uint256"
					}
				],
				"types": {
					"t_uint256": {
						"encoding": "inplace",
						"label": "uint256",
						"numberOfBytes": "32"
					}
				}
			},
			"userdoc": {
				"kind": "user",
				"methods": {},
				"version": 1
			}
		}
	}
}