{
	"contracts/Own code/operator.sol": {
		"Operator": {
			"abi": [
				{
					"inputs": [],
					"name": "a",
					"outputs": [
						{
							"internalType": "uint256",
							"name": "",
							"type": "uint256"
						}
					],
					"stateMutability": "view",
					"type": "function"
				},
				{
					"inputs": [],
					"name": "add",
					"outputs": [
						{
							"internalType": "uint256",
							"name": "",
							"type": "uint256"
						}
					],
					"stateMutability": "view",
					"type": "function"
				},
				{
					"inputs": [],
					"name": "and",
					"outputs": [
						{
							"internalType": "bool",
							"name": "",
							"type": "bool"
						}
					],
					"stateMutability": "pure",
					"type": "function"
				},
				{
					"inputs": [],
					"name": "b",
					"outputs": [
						{
							"internalType": "uint256",
							"name": "",
							"type": "uint256"
						}
					],
					"stateMutability": "view",
					"type": "function"
				},
				{
					"inputs": [],
					"name": "divide",
					"outputs": [
						{
							"internalType": "uint256",
							"name": "",
							"type": "uint256"
						}
					],
					"stateMutability": "view",
					"type": "function"
				},
				{
					"inputs": [],
					"name": "modulus",
					"outputs": [
						{
							"internalType": "uint256",
							"name": "",
							"type": "uint256"
						}
					],
					"stateMutability": "view",
					"type": "function"
				},
				{
					"inputs": [],
					"name": "multiplecation",
					"outputs": [
						{
							"internalType": "uint256",
							"name": "",
							"type": "uint256"
						}
					],
					"stateMutability": "view",
					"type": "function"
				},
				{
					"inputs": [],
					"name": "or",
					"outputs": [
						{
							"internalType": "bool",
							"name": "",
							"type": "bool"
						}
					],
					"stateMutability": "pure",
					"type": "function"
				},
				{
					"inputs": [],
					"name": "substract",
					"outputs": [
						{
							"internalType": "uint256",
							"name": "",
							"type": "uint256"
						}
					],
					"stateMutability": "view",
					"type": "function"
				}
			],
			"devdoc": {
				"kind": "dev",
				"methods": {},
				"version": 1
			},
			"evm": {
				"assembly": "    /* \"contracts/Own code/operator.sol\":62:707  contract Operator {... */\n  mstore(0x40, 0x80)\n    /* \"contracts/Own code/operator.sol\":108:110  20 */\n  0x14\n    /* \"contracts/Own code/operator.sol\":93:110  uint public  a=20 */\n  0x00\n  sstore\n    /* \"contracts/Own code/operator.sol\":132:134  10 */\n  0x0a\n    /* \"contracts/Own code/operator.sol\":117:134  uint public  b=10 */\n  0x01\n  sstore\n    /* \"contracts/Own code/operator.sol\":62:707  contract Operator {... */\n  callvalue\n  dup1\n  iszero\n  tag_1\n  jumpi\n  0x00\n  dup1\n  revert\ntag_1:\n  pop\n  dataSize(sub_0)\n  dup1\n  dataOffset(sub_0)\n  0x00\n  codecopy\n  0x00\n  return\nstop\n\nsub_0: assembly {\n        /* \"contracts/Own code/operator.sol\":62:707  contract Operator {... */\n      mstore(0x40, 0x80)\n      callvalue\n      dup1\n      iszero\n      tag_1\n      jumpi\n      0x00\n      dup1\n      revert\n    tag_1:\n      pop\n      jumpi(tag_2, lt(calldatasize, 0x04))\n      shr(0xe0, calldataload(0x00))\n      dup1\n      0x9542f2e0\n      gt\n      tag_12\n      jumpi\n      dup1\n      0x9542f2e0\n      eq\n      tag_7\n      jumpi\n      dup1\n      0xa9c07d0c\n      eq\n      tag_8\n      jumpi\n      dup1\n      0xb53b8d7a\n      eq\n      tag_9\n      jumpi\n      dup1\n      0xdf09a2da\n      eq\n      tag_10\n      jumpi\n      dup1\n      0xff4b0400\n      eq\n      tag_11\n      jumpi\n      jump(tag_2)\n    tag_12:\n      dup1\n      0x0dbe671f\n      eq\n      tag_3\n      jumpi\n      dup1\n      0x2d5e74d8\n      eq\n      tag_4\n      jumpi\n      dup1\n      0x4df7e3d0\n      eq\n      tag_5\n      jumpi\n      dup1\n      0x4f2be91f\n      eq\n      tag_6\n      jumpi\n    tag_2:\n      0x00\n      dup1\n      revert\n        /* \"contracts/Own code/operator.sol\":93:110  uint public  a=20 */\n    tag_3:\n      tag_13\n      tag_14\n      jump\t// in\n    tag_13:\n      mload(0x40)\n      tag_15\n      swap2\n      swap1\n      tag_16\n      jump\t// in\n    tag_15:\n      mload(0x40)\n      dup1\n      swap2\n      sub\n      swap1\n      return\n        /* \"contracts/Own code/operator.sol\":625:704  function or() public pure returns (bool){... */\n    tag_4:\n      tag_17\n      tag_18\n      jump\t// in\n    tag_17:\n      mload(0x40)\n      tag_19\n      swap2\n      swap1\n      tag_20\n      jump\t// in\n    tag_19:\n      mload(0x40)\n      dup1\n      swap2\n      sub\n      swap1\n      return\n        /* \"contracts/Own code/operator.sol\":117:134  uint public  b=10 */\n    tag_5:\n      tag_21\n      tag_22\n      jump\t// in\n    tag_21:\n      mload(0x40)\n      tag_23\n      swap2\n      swap1\n      tag_16\n      jump\t// in\n    tag_23:\n      mload(0x40)\n      dup1\n      swap2\n      sub\n      swap1\n      return\n        /* \"contracts/Own code/operator.sol\":141:209  function add() public view returns (uint){... */\n    tag_6:\n      tag_24\n      tag_25\n      jump\t// in\n    tag_24:\n      mload(0x40)\n      tag_26\n      swap2\n      swap1\n      tag_16\n      jump\t// in\n    tag_26:\n      mload(0x40)\n      dup1\n      swap2\n      sub\n      swap1\n      return\n        /* \"contracts/Own code/operator.sol\":537:617  function and() public pure returns (bool){... */\n    tag_7:\n      tag_27\n      tag_28\n      jump\t// in\n    tag_27:\n      mload(0x40)\n      tag_29\n      swap2\n      swap1\n      tag_20\n      jump\t// in\n    tag_29:\n      mload(0x40)\n      dup1\n      swap2\n      sub\n      swap1\n      return\n        /* \"contracts/Own code/operator.sol\":296:375  function multiplecation() public view returns (uint){... */\n    tag_8:\n      tag_30\n      tag_31\n      jump\t// in\n    tag_30:\n      mload(0x40)\n      tag_32\n      swap2\n      swap1\n      tag_16\n      jump\t// in\n    tag_32:\n      mload(0x40)\n      dup1\n      swap2\n      sub\n      swap1\n      return\n        /* \"contracts/Own code/operator.sol\":381:452  function divide() public view returns (uint){... */\n    tag_9:\n      tag_33\n      tag_34\n      jump\t// in\n    tag_33:\n      mload(0x40)\n      tag_35\n      swap2\n      swap1\n      tag_16\n      jump\t// in\n    tag_35:\n      mload(0x40)\n      dup1\n      swap2\n      sub\n      swap1\n      return\n        /* \"contracts/Own code/operator.sol\":215:289  function substract() public view returns (uint){... */\n    tag_10:\n      tag_36\n      tag_37\n      jump\t// in\n    tag_36:\n      mload(0x40)\n      tag_38\n      swap2\n      swap1\n      tag_16\n      jump\t// in\n    tag_38:\n      mload(0x40)\n      dup1\n      swap2\n      sub\n      swap1\n      return\n        /* \"contracts/Own code/operator.sol\":458:530  function modulus() public view returns (uint){... */\n    tag_11:\n      tag_39\n      tag_40\n      jump\t// in\n    tag_39:\n      mload(0x40)\n      tag_41\n      swap2\n      swap1\n      tag_16\n      jump\t// in\n    tag_41:\n      mload(0x40)\n      dup1\n      swap2\n      sub\n      swap1\n      return\n        /* \"contracts/Own code/operator.sol\":93:110  uint public  a=20 */\n    tag_14:\n      sload(0x00)\n      dup2\n      jump\t// out\n        /* \"contracts/Own code/operator.sol\":625:704  function or() public pure returns (bool){... */\n    tag_18:\n        /* \"contracts/Own code/operator.sol\":660:664  bool */\n      0x00\n        /* \"contracts/Own code/operator.sol\":685:686  2 */\n      0x02\n        /* \"contracts/Own code/operator.sol\":682:684  10 */\n      0x0a\n        /* \"contracts/Own code/operator.sol\":682:686  10>2 */\n      gt\n        /* \"contracts/Own code/operator.sol\":682:695  10>2 || 20<30 */\n      dup1\n      tag_43\n      jumpi\n      pop\n        /* \"contracts/Own code/operator.sol\":693:695  30 */\n      0x1e\n        /* \"contracts/Own code/operator.sol\":690:692  20 */\n      0x14\n        /* \"contracts/Own code/operator.sol\":690:695  20<30 */\n      lt\n        /* \"contracts/Own code/operator.sol\":682:695  10>2 || 20<30 */\n    tag_43:\n        /* \"contracts/Own code/operator.sol\":674:696  return (10>2 || 20<30) */\n      swap1\n      pop\n        /* \"contracts/Own code/operator.sol\":625:704  function or() public pure returns (bool){... */\n      swap1\n      jump\t// out\n        /* \"contracts/Own code/operator.sol\":117:134  uint public  b=10 */\n    tag_22:\n      sload(0x01)\n      dup2\n      jump\t// out\n        /* \"contracts/Own code/operator.sol\":141:209  function add() public view returns (uint){... */\n    tag_25:\n        /* \"contracts/Own code/operator.sol\":177:181  uint */\n      0x00\n        /* \"contracts/Own code/operator.sol\":200:201  b */\n      sload(0x01)\n        /* \"contracts/Own code/operator.sol\":198:199  a */\n      sload(0x00)\n        /* \"contracts/Own code/operator.sol\":198:201  a+b */\n      tag_45\n      swap2\n      swap1\n      tag_46\n      jump\t// in\n    tag_45:\n        /* \"contracts/Own code/operator.sol\":191:201  return a+b */\n      swap1\n      pop\n        /* \"contracts/Own code/operator.sol\":141:209  function add() public view returns (uint){... */\n      swap1\n      jump\t// out\n        /* \"contracts/Own code/operator.sol\":537:617  function and() public pure returns (bool){... */\n    tag_28:\n        /* \"contracts/Own code/operator.sol\":573:577  bool */\n      0x00\n        /* \"contracts/Own code/operator.sol\":598:599  2 */\n      0x02\n        /* \"contracts/Own code/operator.sol\":595:597  10 */\n      0x0a\n        /* \"contracts/Own code/operator.sol\":595:599  10>2 */\n      gt\n        /* \"contracts/Own code/operator.sol\":595:608  10>2 && 20<30 */\n      dup1\n      iszero\n      tag_48\n      jumpi\n      pop\n        /* \"contracts/Own code/operator.sol\":606:608  30 */\n      0x1e\n        /* \"contracts/Own code/operator.sol\":603:605  20 */\n      0x14\n        /* \"contracts/Own code/operator.sol\":603:608  20<30 */\n      lt\n        /* \"contracts/Own code/operator.sol\":595:608  10>2 && 20<30 */\n    tag_48:\n        /* \"contracts/Own code/operator.sol\":587:609  return (10>2 && 20<30) */\n      swap1\n      pop\n        /* \"contracts/Own code/operator.sol\":537:617  function and() public pure returns (bool){... */\n      swap1\n      jump\t// out\n        /* \"contracts/Own code/operator.sol\":296:375  function multiplecation() public view returns (uint){... */\n    tag_31:\n        /* \"contracts/Own code/operator.sol\":343:347  uint */\n      0x00\n        /* \"contracts/Own code/operator.sol\":366:367  b */\n      sload(0x01)\n        /* \"contracts/Own code/operator.sol\":364:365  a */\n      sload(0x00)\n        /* \"contracts/Own code/operator.sol\":364:367  a*b */\n      tag_50\n      swap2\n      swap1\n      tag_51\n      jump\t// in\n    tag_50:\n        /* \"contracts/Own code/operator.sol\":357:367  return a*b */\n      swap1\n      pop\n        /* \"contracts/Own code/operator.sol\":296:375  function multiplecation() public view returns (uint){... */\n      swap1\n      jump\t// out\n        /* \"contracts/Own code/operator.sol\":381:452  function divide() public view returns (uint){... */\n    tag_34:\n        /* \"contracts/Own code/operator.sol\":420:424  uint */\n      0x00\n        /* \"contracts/Own code/operator.sol\":443:444  b */\n      sload(0x01)\n        /* \"contracts/Own code/operator.sol\":441:442  a */\n      sload(0x00)\n        /* \"contracts/Own code/operator.sol\":441:444  a/b */\n      tag_53\n      swap2\n      swap1\n      tag_54\n      jump\t// in\n    tag_53:\n        /* \"contracts/Own code/operator.sol\":434:444  return a/b */\n      swap1\n      pop\n        /* \"contracts/Own code/operator.sol\":381:452  function divide() public view returns (uint){... */\n      swap1\n      jump\t// out\n        /* \"contracts/Own code/operator.sol\":215:289  function substract() public view returns (uint){... */\n    tag_37:\n        /* \"contracts/Own code/operator.sol\":257:261  uint */\n      0x00\n        /* \"contracts/Own code/operator.sol\":280:281  b */\n      sload(0x01)\n        /* \"contracts/Own code/operator.sol\":278:279  a */\n      sload(0x00)\n        /* \"contracts/Own code/operator.sol\":278:281  a-b */\n      tag_56\n      swap2\n      swap1\n      tag_57\n      jump\t// in\n    tag_56:\n        /* \"contracts/Own code/operator.sol\":271:281  return a-b */\n      swap1\n      pop\n        /* \"contracts/Own code/operator.sol\":215:289  function substract() public view returns (uint){... */\n      swap1\n      jump\t// out\n        /* \"contracts/Own code/operator.sol\":458:530  function modulus() public view returns (uint){... */\n    tag_40:\n        /* \"contracts/Own code/operator.sol\":498:502  uint */\n      0x00\n        /* \"contracts/Own code/operator.sol\":521:522  b */\n      sload(0x01)\n        /* \"contracts/Own code/operator.sol\":519:520  a */\n      sload(0x00)\n        /* \"contracts/Own code/operator.sol\":519:522  a%b */\n      tag_59\n      swap2\n      swap1\n      tag_60\n      jump\t// in\n    tag_59:\n        /* \"contracts/Own code/operator.sol\":512:522  return a%b */\n      swap1\n      pop\n        /* \"contracts/Own code/operator.sol\":458:530  function modulus() public view returns (uint){... */\n      swap1\n      jump\t// out\n        /* \"#utility.yul\":7:84   */\n    tag_61:\n        /* \"#utility.yul\":44:51   */\n      0x00\n        /* \"#utility.yul\":73:78   */\n      dup2\n        /* \"#utility.yul\":62:78   */\n      swap1\n      pop\n        /* \"#utility.yul\":7:84   */\n      swap2\n      swap1\n      pop\n      jump\t// out\n        /* \"#utility.yul\":90:208   */\n    tag_62:\n        /* \"#utility.yul\":177:201   */\n      tag_70\n        /* \"#utility.yul\":195:200   */\n      dup2\n        /* \"#utility.yul\":177:201   */\n      tag_61\n      jump\t// in\n    tag_70:\n        /* \"#utility.yul\":172:175   */\n      dup3\n        /* \"#utility.yul\":165:202   */\n      mstore\n        /* \"#utility.yul\":90:208   */\n      pop\n      pop\n      jump\t// out\n        /* \"#utility.yul\":214:436   */\n    tag_16:\n        /* \"#utility.yul\":307:311   */\n      0x00\n        /* \"#utility.yul\":345:347   */\n      0x20\n        /* \"#utility.yul\":334:343   */\n      dup3\n        /* \"#utility.yul\":330:348   */\n      add\n        /* \"#utility.yul\":322:348   */\n      swap1\n      pop\n        /* \"#utility.yul\":358:429   */\n      tag_72\n        /* \"#utility.yul\":426:427   */\n      0x00\n        /* \"#utility.yul\":415:424   */\n      dup4\n        /* \"#utility.yul\":411:428   */\n      add\n        /* \"#utility.yul\":402:408   */\n      dup5\n        /* \"#utility.yul\":358:429   */\n      tag_62\n      jump\t// in\n    tag_72:\n        /* \"#utility.yul\":214:436   */\n      swap3\n      swap2\n      pop\n      pop\n      jump\t// out\n        /* \"#utility.yul\":442:532   */\n    tag_63:\n        /* \"#utility.yul\":476:483   */\n      0x00\n        /* \"#utility.yul\":519:524   */\n      dup2\n        /* \"#utility.yul\":512:525   */\n      iszero\n        /* \"#utility.yul\":505:526   */\n      iszero\n        /* \"#utility.yul\":494:526   */\n      swap1\n      pop\n        /* \"#utility.yul\":442:532   */\n      swap2\n      swap1\n      pop\n      jump\t// out\n        /* \"#utility.yul\":538:647   */\n    tag_64:\n        /* \"#utility.yul\":619:640   */\n      tag_75\n        /* \"#utility.yul\":634:639   */\n      dup2\n        /* \"#utility.yul\":619:640   */\n      tag_63\n      jump\t// in\n    tag_75:\n        /* \"#utility.yul\":614:617   */\n      dup3\n        /* \"#utility.yul\":607:641   */\n      mstore\n        /* \"#utility.yul\":538:647   */\n      pop\n      pop\n      jump\t// out\n        /* \"#utility.yul\":653:863   */\n    tag_20:\n        /* \"#utility.yul\":740:744   */\n      0x00\n        /* \"#utility.yul\":778:780   */\n      0x20\n        /* \"#utility.yul\":767:776   */\n      dup3\n        /* \"#utility.yul\":763:781   */\n      add\n        /* \"#utility.yul\":755:781   */\n      swap1\n      pop\n        /* \"#utility.yul\":791:856   */\n      tag_77\n        /* \"#utility.yul\":853:854   */\n      0x00\n        /* \"#utility.yul\":842:851   */\n      dup4\n        /* \"#utility.yul\":838:855   */\n      add\n        /* \"#utility.yul\":829:835   */\n      dup5\n        /* \"#utility.yul\":791:856   */\n      tag_64\n      jump\t// in\n    tag_77:\n        /* \"#utility.yul\":653:863   */\n      swap3\n      swap2\n      pop\n      pop\n      jump\t// out\n        /* \"#utility.yul\":869:1049   */\n    tag_65:\n        /* \"#utility.yul\":917:994   */\n      0x4e487b7100000000000000000000000000000000000000000000000000000000\n        /* \"#utility.yul\":914:915   */\n      0x00\n        /* \"#utility.yul\":907:995   */\n      mstore\n        /* \"#utility.yul\":1014:1018   */\n      0x11\n        /* \"#utility.yul\":1011:1012   */\n      0x04\n        /* \"#utility.yul\":1004:1019   */\n      mstore\n        /* \"#utility.yul\":1038:1042   */\n      0x24\n        /* \"#utility.yul\":1035:1036   */\n      0x00\n        /* \"#utility.yul\":1028:1043   */\n      revert\n        /* \"#utility.yul\":1055:1246   */\n    tag_46:\n        /* \"#utility.yul\":1095:1098   */\n      0x00\n        /* \"#utility.yul\":1114:1134   */\n      tag_80\n        /* \"#utility.yul\":1132:1133   */\n      dup3\n        /* \"#utility.yul\":1114:1134   */\n      tag_61\n      jump\t// in\n    tag_80:\n        /* \"#utility.yul\":1109:1134   */\n      swap2\n      pop\n        /* \"#utility.yul\":1148:1168   */\n      tag_81\n        /* \"#utility.yul\":1166:1167   */\n      dup4\n        /* \"#utility.yul\":1148:1168   */\n      tag_61\n      jump\t// in\n    tag_81:\n        /* \"#utility.yul\":1143:1168   */\n      swap3\n      pop\n        /* \"#utility.yul\":1191:1192   */\n      dup3\n        /* \"#utility.yul\":1188:1189   */\n      dup3\n        /* \"#utility.yul\":1184:1193   */\n      add\n        /* \"#utility.yul\":1177:1193   */\n      swap1\n      pop\n        /* \"#utility.yul\":1212:1215   */\n      dup1\n        /* \"#utility.yul\":1209:1210   */\n      dup3\n        /* \"#utility.yul\":1206:1216   */\n      gt\n        /* \"#utility.yul\":1203:1239   */\n      iszero\n      tag_82\n      jumpi\n        /* \"#utility.yul\":1219:1237   */\n      tag_83\n      tag_65\n      jump\t// in\n    tag_83:\n        /* \"#utility.yul\":1203:1239   */\n    tag_82:\n        /* \"#utility.yul\":1055:1246   */\n      swap3\n      swap2\n      pop\n      pop\n      jump\t// out\n        /* \"#utility.yul\":1252:1662   */\n    tag_51:\n        /* \"#utility.yul\":1292:1299   */\n      0x00\n        /* \"#utility.yul\":1315:1335   */\n      tag_85\n        /* \"#utility.yul\":1333:1334   */\n      dup3\n        /* \"#utility.yul\":1315:1335   */\n      tag_61\n      jump\t// in\n    tag_85:\n        /* \"#utility.yul\":1310:1335   */\n      swap2\n      pop\n        /* \"#utility.yul\":1349:1369   */\n      tag_86\n        /* \"#utility.yul\":1367:1368   */\n      dup4\n        /* \"#utility.yul\":1349:1369   */\n      tag_61\n      jump\t// in\n    tag_86:\n        /* \"#utility.yul\":1344:1369   */\n      swap3\n      pop\n        /* \"#utility.yul\":1404:1405   */\n      dup3\n        /* \"#utility.yul\":1401:1402   */\n      dup3\n        /* \"#utility.yul\":1397:1406   */\n      mul\n        /* \"#utility.yul\":1426:1456   */\n      tag_87\n        /* \"#utility.yul\":1444:1455   */\n      dup2\n        /* \"#utility.yul\":1426:1456   */\n      tag_61\n      jump\t// in\n    tag_87:\n        /* \"#utility.yul\":1415:1456   */\n      swap2\n      pop\n        /* \"#utility.yul\":1605:1606   */\n      dup3\n        /* \"#utility.yul\":1596:1603   */\n      dup3\n        /* \"#utility.yul\":1592:1607   */\n      div\n        /* \"#utility.yul\":1589:1590   */\n      dup5\n        /* \"#utility.yul\":1586:1608   */\n      eq\n        /* \"#utility.yul\":1566:1567   */\n      dup4\n        /* \"#utility.yul\":1559:1568   */\n      iszero\n        /* \"#utility.yul\":1539:1622   */\n      or\n        /* \"#utility.yul\":1516:1655   */\n      tag_88\n      jumpi\n        /* \"#utility.yul\":1635:1653   */\n      tag_89\n      tag_65\n      jump\t// in\n    tag_89:\n        /* \"#utility.yul\":1516:1655   */\n    tag_88:\n        /* \"#utility.yul\":1300:1662   */\n      pop\n        /* \"#utility.yul\":1252:1662   */\n      swap3\n      swap2\n      pop\n      pop\n      jump\t// out\n        /* \"#utility.yul\":1668:1848   */\n    tag_66:\n        /* \"#utility.yul\":1716:1793   */\n      0x4e487b7100000000000000000000000000000000000000000000000000000000\n        /* \"#utility.yul\":1713:1714   */\n      0x00\n        /* \"#utility.yul\":1706:1794   */\n      mstore\n        /* \"#utility.yul\":1813:1817   */\n      0x12\n        /* \"#utility.yul\":1810:1811   */\n      0x04\n        /* \"#utility.yul\":1803:1818   */\n      mstore\n        /* \"#utility.yul\":1837:1841   */\n      0x24\n        /* \"#utility.yul\":1834:1835   */\n      0x00\n        /* \"#utility.yul\":1827:1842   */\n      revert\n        /* \"#utility.yul\":1854:2039   */\n    tag_54:\n        /* \"#utility.yul\":1894:1895   */\n      0x00\n        /* \"#utility.yul\":1911:1931   */\n      tag_92\n        /* \"#utility.yul\":1929:1930   */\n      dup3\n        /* \"#utility.yul\":1911:1931   */\n      tag_61\n      jump\t// in\n    tag_92:\n        /* \"#utility.yul\":1906:1931   */\n      swap2\n      pop\n        /* \"#utility.yul\":1945:1965   */\n      tag_93\n        /* \"#utility.yul\":1963:1964   */\n      dup4\n        /* \"#utility.yul\":1945:1965   */\n      tag_61\n      jump\t// in\n    tag_93:\n        /* \"#utility.yul\":1940:1965   */\n      swap3\n      pop\n        /* \"#utility.yul\":1984:1985   */\n      dup3\n        /* \"#utility.yul\":1974:2009   */\n      tag_94\n      jumpi\n        /* \"#utility.yul\":1989:2007   */\n      tag_95\n      tag_66\n      jump\t// in\n    tag_95:\n        /* \"#utility.yul\":1974:2009   */\n    tag_94:\n        /* \"#utility.yul\":2031:2032   */\n      dup3\n        /* \"#utility.yul\":2028:2029   */\n      dup3\n        /* \"#utility.yul\":2024:2033   */\n      div\n        /* \"#utility.yul\":2019:2033   */\n      swap1\n      pop\n        /* \"#utility.yul\":1854:2039   */\n      swap3\n      swap2\n      pop\n      pop\n      jump\t// out\n        /* \"#utility.yul\":2045:2239   */\n    tag_57:\n        /* \"#utility.yul\":2085:2089   */\n      0x00\n        /* \"#utility.yul\":2105:2125   */\n      tag_97\n        /* \"#utility.yul\":2123:2124   */\n      dup3\n        /* \"#utility.yul\":2105:2125   */\n      tag_61\n      jump\t// in\n    tag_97:\n        /* \"#utility.yul\":2100:2125   */\n      swap2\n      pop\n        /* \"#utility.yul\":2139:2159   */\n      tag_98\n        /* \"#utility.yul\":2157:2158   */\n      dup4\n        /* \"#utility.yul\":2139:2159   */\n      tag_61\n      jump\t// in\n    tag_98:\n        /* \"#utility.yul\":2134:2159   */\n      swap3\n      pop\n        /* \"#utility.yul\":2183:2184   */\n      dup3\n        /* \"#utility.yul\":2180:2181   */\n      dup3\n        /* \"#utility.yul\":2176:2185   */\n      sub\n        /* \"#utility.yul\":2168:2185   */\n      swap1\n      pop\n        /* \"#utility.yul\":2207:2208   */\n      dup2\n        /* \"#utility.yul\":2201:2205   */\n      dup2\n        /* \"#utility.yul\":2198:2209   */\n      gt\n        /* \"#utility.yul\":2195:2232   */\n      iszero\n      tag_99\n      jumpi\n        /* \"#utility.yul\":2212:2230   */\n      tag_100\n      tag_65\n      jump\t// in\n    tag_100:\n        /* \"#utility.yul\":2195:2232   */\n    tag_99:\n        /* \"#utility.yul\":2045:2239   */\n      swap3\n      swap2\n      pop\n      pop\n      jump\t// out\n        /* \"#utility.yul\":2245:2421   */\n    tag_60:\n        /* \"#utility.yul\":2277:2278   */\n      0x00\n        /* \"#utility.yul\":2294:2314   */\n      tag_102\n        /* \"#utility.yul\":2312:2313   */\n      dup3\n        /* \"#utility.yul\":2294:2314   */\n      tag_61\n      jump\t// in\n    tag_102:\n        /* \"#utility.yul\":2289:2314   */\n      swap2\n      pop\n        /* \"#utility.yul\":2328:2348   */\n      tag_103\n        /* \"#utility.yul\":2346:2347   */\n      dup4\n        /* \"#utility.yul\":2328:2348   */\n      tag_61\n      jump\t// in\n    tag_103:\n        /* \"#utility.yul\":2323:2348   */\n      swap3\n      pop\n        /* \"#utility.yul\":2367:2368   */\n      dup3\n        /* \"#utility.yul\":2357:2392   */\n      tag_104\n      jumpi\n        /* \"#utility.yul\":2372:2390   */\n      tag_105\n      tag_66\n      jump\t// in\n    tag_105:\n        /* \"#utility.yul\":2357:2392   */\n    tag_104:\n        /* \"#utility.yul\":2413:2414   */\n      dup3\n        /* \"#utility.yul\":2410:2411   */\n      dup3\n        /* \"#utility.yul\":2406:2415   */\n      mod\n        /* \"#utility.yul\":2401:2415   */\n      swap1\n      pop\n        /* \"#utility.yul\":2245:2421   */\n      swap3\n      swap2\n      pop\n      pop\n      jump\t// out\n\n    auxdata: 0xa2646970667358221220d06fa49209f104065137b22261721f2e1899959bd7ef42c0361b0b4ee317ef7964736f6c63430008120033\n}\n",
				"bytecode": {
					"linkReferences": {},
					"object": "60806040526014600055600a60015534801561001a57600080fd5b506104608061002a6000396000f3fe608060405234801561001057600080fd5b50600436106100935760003560e01c80639542f2e0116100665780639542f2e014610110578063a9c07d0c1461012e578063b53b8d7a1461014c578063df09a2da1461016a578063ff4b04001461018857610093565b80630dbe671f146100985780632d5e74d8146100b65780634df7e3d0146100d45780634f2be91f146100f2575b600080fd5b6100a06101a6565b6040516100ad919061026f565b60405180910390f35b6100be6101ac565b6040516100cb91906102a5565b60405180910390f35b6100dc6101c4565b6040516100e9919061026f565b60405180910390f35b6100fa6101ca565b604051610107919061026f565b60405180910390f35b6101186101e1565b60405161012591906102a5565b60405180910390f35b6101366101fa565b604051610143919061026f565b60405180910390f35b610154610211565b604051610161919061026f565b60405180910390f35b610172610228565b60405161017f919061026f565b60405180910390f35b61019061023f565b60405161019d919061026f565b60405180910390f35b60005481565b60006002600a11806101bf5750601e6014105b905090565b60015481565b60006001546000546101dc91906102ef565b905090565b60006002600a1180156101f55750601e6014105b905090565b600060015460005461020c9190610323565b905090565b60006001546000546102239190610394565b905090565b600060015460005461023a91906103c5565b905090565b600060015460005461025191906103f9565b905090565b6000819050919050565b61026981610256565b82525050565b60006020820190506102846000830184610260565b92915050565b60008115159050919050565b61029f8161028a565b82525050565b60006020820190506102ba6000830184610296565b92915050565b7f4e487b7100000000000000000000000000000000000000000000000000000000600052601160045260246000fd5b60006102fa82610256565b915061030583610256565b925082820190508082111561031d5761031c6102c0565b5b92915050565b600061032e82610256565b915061033983610256565b925082820261034781610256565b9150828204841483151761035e5761035d6102c0565b5b5092915050565b7f4e487b7100000000000000000000000000000000000000000000000000000000600052601260045260246000fd5b600061039f82610256565b91506103aa83610256565b9250826103ba576103b9610365565b5b828204905092915050565b60006103d082610256565b91506103db83610256565b92508282039050818111156103f3576103f26102c0565b5b92915050565b600061040482610256565b915061040f83610256565b92508261041f5761041e610365565b5b82820690509291505056fea2646970667358221220d06fa49209f104065137b22261721f2e1899959bd7ef42c0361b0b4ee317ef7964736f6c63430008120033",
					"opcodes": "PUSH1 0x80 PUSH1 0x40 MSTORE PUSH1 0x14 PUSH1 0x0 SSTORE PUSH1 0xA PUSH1 0x1 SSTORE CALLVALUE DUP1 ISZERO PUSH2 0x1A JUMPI PUSH1 0x0 DUP1 REVERT JUMPDEST POP PUSH2 0x460 DUP1 PUSH2 0x2A PUSH1 0x0 CODECOPY PUSH1 0x0 RETURN INVALID PUSH1 0x80 PUSH1 0x40 MSTORE CALLVALUE DUP1 ISZERO PUSH2 0x10 JUMPI PUSH1 0x0 DUP1 REVERT JUMPDEST POP PUSH1 0x4 CALLDATASIZE LT PUSH2 0x93 JUMPI PUSH1 0x0 CALLDATALOAD PUSH1 0xE0 SHR DUP1 PUSH4 0x9542F2E0 GT PUSH2 0x66 JUMPI DUP1 PUSH4 0x9542F2E0 EQ PUSH2 0x110 JUMPI DUP1 PUSH4 0xA9C07D0C EQ PUSH2 0x12E JUMPI DUP1 PUSH4 0xB53B8D7A EQ PUSH2 0x14C JUMPI DUP1 PUSH4 0xDF09A2DA EQ PUSH2 0x16A JUMPI DUP1 PUSH4 0xFF4B0400 EQ PUSH2 0x188 JUMPI PUSH2 0x93 JUMP JUMPDEST DUP1 PUSH4 0xDBE671F EQ PUSH2 0x98 JUMPI DUP1 PUSH4 0x2D5E74D8 EQ PUSH2 0xB6 JUMPI DUP1 PUSH4 0x4DF7E3D0 EQ PUSH2 0xD4 JUMPI DUP1 PUSH4 0x4F2BE91F EQ PUSH2 0xF2 JUMPI JUMPDEST PUSH1 0x0 DUP1 REVERT JUMPDEST PUSH2 0xA0 PUSH2 0x1A6 JUMP JUMPDEST PUSH1 0x40 MLOAD PUSH2 0xAD SWAP2 SWAP1 PUSH2 0x26F JUMP JUMPDEST PUSH1 0x40 MLOAD DUP1 SWAP2 SUB SWAP1 RETURN JUMPDEST PUSH2 0xBE PUSH2 0x1AC JUMP JUMPDEST PUSH1 0x40 MLOAD PUSH2 0xCB SWAP2 SWAP1 PUSH2 0x2A5 JUMP JUMPDEST PUSH1 0x40 MLOAD DUP1 SWAP2 SUB SWAP1 RETURN JUMPDEST PUSH2 0xDC PUSH2 0x1C4 JUMP JUMPDEST PUSH1 0x40 MLOAD PUSH2 0xE9 SWAP2 SWAP1 PUSH2 0x26F JUMP JUMPDEST PUSH1 0x40 MLOAD DUP1 SWAP2 SUB SWAP1 RETURN JUMPDEST PUSH2 0xFA PUSH2 0x1CA JUMP JUMPDEST PUSH1 0x40 MLOAD PUSH2 0x107 SWAP2 SWAP1 PUSH2 0x26F JUMP JUMPDEST PUSH1 0x40 MLOAD DUP1 SWAP2 SUB SWAP1 RETURN JUMPDEST PUSH2 0x118 PUSH2 0x1E1 JUMP JUMPDEST PUSH1 0x40 MLOAD PUSH2 0x125 SWAP2 SWAP1 PUSH2 0x2A5 JUMP JUMPDEST PUSH1 0x40 MLOAD DUP1 SWAP2 SUB SWAP1 RETURN JUMPDEST PUSH2 0x136 PUSH2 0x1FA JUMP JUMPDEST PUSH1 0x40 MLOAD PUSH2 0x143 SWAP2 SWAP1 PUSH2 0x26F JUMP JUMPDEST PUSH1 0x40 MLOAD DUP1 SWAP2 SUB SWAP1 RETURN JUMPDEST PUSH2 0x154 PUSH2 0x211 JUMP JUMPDEST PUSH1 0x40 MLOAD PUSH2 0x161 SWAP2 SWAP1 PUSH2 0x26F JUMP JUMPDEST PUSH1 0x40 MLOAD DUP1 SWAP2 SUB SWAP1 RETURN JUMPDEST PUSH2 0x172 PUSH2 0x228 JUMP JUMPDEST PUSH1 0x40 MLOAD PUSH2 0x17F SWAP2 SWAP1 PUSH2 0x26F JUMP JUMPDEST PUSH1 0x40 MLOAD DUP1 SWAP2 SUB SWAP1 RETURN JUMPDEST PUSH2 0x190 PUSH2 0x23F JUMP JUMPDEST PUSH1 0x40 MLOAD PUSH2 0x19D SWAP2 SWAP1 PUSH2 0x26F JUMP JUMPDEST PUSH1 0x40 MLOAD DUP1 SWAP2 SUB SWAP1 RETURN JUMPDEST PUSH1 0x0 SLOAD DUP2 JUMP JUMPDEST PUSH1 0x0 PUSH1 0x2 PUSH1 0xA GT DUP1 PUSH2 0x1BF JUMPI POP PUSH1 0x1E PUSH1 0x14 LT JUMPDEST SWAP1 POP SWAP1 JUMP JUMPDEST PUSH1 0x1 SLOAD DUP2 JUMP JUMPDEST PUSH1 0x0 PUSH1 0x1 SLOAD PUSH1 0x0 SLOAD PUSH2 0x1DC SWAP2 SWAP1 PUSH2 0x2EF JUMP JUMPDEST SWAP1 POP SWAP1 JUMP JUMPDEST PUSH1 0x0 PUSH1 0x2 PUSH1 0xA GT DUP1 ISZERO PUSH2 0x1F5 JUMPI POP PUSH1 0x1E PUSH1 0x14 LT JUMPDEST SWAP1 POP SWAP1 JUMP JUMPDEST PUSH1 0x0 PUSH1 0x1 SLOAD PUSH1 0x0 SLOAD PUSH2 0x20C SWAP2 SWAP1 PUSH2 0x323 JUMP JUMPDEST SWAP1 POP SWAP1 JUMP JUMPDEST PUSH1 0x0 PUSH1 0x1 SLOAD PUSH1 0x0 SLOAD PUSH2 0x223 SWAP2 SWAP1 PUSH2 0x394 JUMP JUMPDEST SWAP1 POP SWAP1 JUMP JUMPDEST PUSH1 0x0 PUSH1 0x1 SLOAD PUSH1 0x0 SLOAD PUSH2 0x23A SWAP2 SWAP1 PUSH2 0x3C5 JUMP JUMPDEST SWAP1 POP SWAP1 JUMP JUMPDEST PUSH1 0x0 PUSH1 0x1 SLOAD PUSH1 0x0 SLOAD PUSH2 0x251 SWAP2 SWAP1 PUSH2 0x3F9 JUMP JUMPDEST SWAP1 POP SWAP1 JUMP JUMPDEST PUSH1 0x0 DUP2 SWAP1 POP SWAP2 SWAP1 POP JUMP JUMPDEST PUSH2 0x269 DUP2 PUSH2 0x256 JUMP JUMPDEST DUP3 MSTORE POP POP JUMP JUMPDEST PUSH1 0x0 PUSH1 0x20 DUP3 ADD SWAP1 POP PUSH2 0x284 PUSH1 0x0 DUP4 ADD DUP5 PUSH2 0x260 JUMP JUMPDEST SWAP3 SWAP2 POP POP JUMP JUMPDEST PUSH1 0x0 DUP2 ISZERO ISZERO SWAP1 POP SWAP2 SWAP1 POP JUMP JUMPDEST PUSH2 0x29F DUP2 PUSH2 0x28A JUMP JUMPDEST DUP3 MSTORE POP POP JUMP JUMPDEST PUSH1 0x0 PUSH1 0x20 DUP3 ADD SWAP1 POP PUSH2 0x2BA PUSH1 0x0 DUP4 ADD DUP5 PUSH2 0x296 JUMP JUMPDEST SWAP3 SWAP2 POP POP JUMP JUMPDEST PUSH32 0x4E487B7100000000000000000000000000000000000000000000000000000000 PUSH1 0x0 MSTORE PUSH1 0x11 PUSH1 0x4 MSTORE PUSH1 0x24 PUSH1 0x0 REVERT JUMPDEST PUSH1 0x0 PUSH2 0x2FA DUP3 PUSH2 0x256 JUMP JUMPDEST SWAP2 POP PUSH2 0x305 DUP4 PUSH2 0x256 JUMP JUMPDEST SWAP3 POP DUP3 DUP3 ADD SWAP1 POP DUP1 DUP3 GT ISZERO PUSH2 0x31D JUMPI PUSH2 0x31C PUSH2 0x2C0 JUMP JUMPDEST JUMPDEST SWAP3 SWAP2 POP POP JUMP JUMPDEST PUSH1 0x0 PUSH2 0x32E DUP3 PUSH2 0x256 JUMP JUMPDEST SWAP2 POP PUSH2 0x339 DUP4 PUSH2 0x256 JUMP JUMPDEST SWAP3 POP DUP3 DUP3 MUL PUSH2 0x347 DUP2 PUSH2 0x256 JUMP JUMPDEST SWAP2 POP DUP3 DUP3 DIV DUP5 EQ DUP4 ISZERO OR PUSH2 0x35E JUMPI PUSH2 0x35D PUSH2 0x2C0 JUMP JUMPDEST JUMPDEST POP SWAP3 SWAP2 POP POP JUMP JUMPDEST PUSH32 0x4E487B7100000000000000000000000000000000000000000000000000000000 PUSH1 0x0 MSTORE PUSH1 0x12 PUSH1 0x4 MSTORE PUSH1 0x24 PUSH1 0x0 REVERT JUMPDEST PUSH1 0x0 PUSH2 0x39F DUP3 PUSH2 0x256 JUMP JUMPDEST SWAP2 POP PUSH2 0x3AA DUP4 PUSH2 0x256 JUMP JUMPDEST SWAP3 POP DUP3 PUSH2 0x3BA JUMPI PUSH2 0x3B9 PUSH2 0x365 JUMP JUMPDEST JUMPDEST DUP3 DUP3 DIV SWAP1 POP SWAP3 SWAP2 POP POP JUMP JUMPDEST PUSH1 0x0 PUSH2 0x3D0 DUP3 PUSH2 0x256 JUMP JUMPDEST SWAP2 POP PUSH2 0x3DB DUP4 PUSH2 0x256 JUMP JUMPDEST SWAP3 POP DUP3 DUP3 SUB SWAP1 POP DUP2 DUP2 GT ISZERO PUSH2 0x3F3 JUMPI PUSH2 0x3F2 PUSH2 0x2C0 JUMP JUMPDEST JUMPDEST SWAP3 SWAP2 POP POP JUMP JUMPDEST PUSH1 0x0 PUSH2 0x404 DUP3 PUSH2 0x256 JUMP JUMPDEST SWAP2 POP PUSH2 0x40F DUP4 PUSH2 0x256 JUMP JUMPDEST SWAP3 POP DUP3 PUSH2 0x41F JUMPI PUSH2 0x41E PUSH2 0x365 JUMP JUMPDEST JUMPDEST DUP3 DUP3 MOD SWAP1 POP SWAP3 SWAP2 POP POP JUMP INVALID LOG2 PUSH5 0x6970667358 0x22 SLT KECCAK256 0xD0 PUSH16 0xA49209F104065137B22261721F2E1899 SWAP6 SWAP12 0xD7 0xEF TIMESTAMP 0xC0 CALLDATASIZE SHL SIGNEXTEND 0x4E 0xE3 OR 0xEF PUSH26 0x64736F6C63430008120033000000000000000000000000000000 "
				},
				"gasEstimates": {
					"creation": {
						"codeDepositCost": "224000",
						"executionCost": "44475",
						"totalCost": "268475"
					},
					"external": {
						"a()": "2430",
						"add()": "infinite",
						"and()": "380",
						"b()": "2474",
						"divide()": "infinite",
						"modulus()": "infinite",
						"multiplecation()": "infinite",
						"or()": "389",
						"substract()": "infinite"
					}
				},
				"methodIdentifiers": {
					"a()": "0dbe671f",
					"add()": "4f2be91f",
					"and()": "9542f2e0",
					"b()": "4df7e3d0",
					"divide()": "b53b8d7a",
					"modulus()": "ff4b0400",
					"multiplecation()": "a9c07d0c",
					"or()": "2d5e74d8",
					"substract()": "df09a2da"
				}
			},
			"storageLayout": {
				"storage": [
					{
						"astId": 4,
						"contract": "contracts/Own code/operator.sol:Operator",
						"label": "a",
						"offset": 0,
						"slot": "0",
						"type": "t_uint256"
					},
					{
						"astId": 7,
						"contract": "contracts/Own code/operator.sol:Operator",
						"label": "b",
						"offset": 0,
						"slot": "1",
						"type": "t_uint256"
					}
				],
				"types": {
					"t_uint256": {
						"encoding": "inplace",
						"label": "uint256",
						"numberOfBytes": "32"
					}
				}
			},
			"userdoc": {
				"kind": "user",
				"methods": {},
				"version": 1
			}
		}
	}
}